export const test_data = {
    segwitv0_1in_2out_INPUT: `020000000001015036a4e1e299b37e0555d1490aa8cb6de379709349088159a5280e13892c74e90000000000feffffff028096980000000000225120f128a8a8a636e19f00a80169550fedfc26b6f5dd04d935ec452894aad938ef0ce75a6d2901000000160014cfb604b3feadf3367e96c701abd4912d0c99877f0247304402206c4c1c9e2fa82d087e5c1a6256f2bcd7cab3b915bf2f6b782a80045f9dc7a9b2022034c720cbbab2e75cbd8a35bc99d148f408b16205592e80200bf2f491bb0fa88b012102077c102914911f57b8c1881e207ea09297024803e1c10ce3f20453c2c3f735c60d000000`,
    segwitv0_1in_1out_INPUT: `020000000001 0162ba7ef7f4ed7e7e1f2fbca227459e1246b565f6c262fdc3f720415d7d1a46d40000000000ffffffff0128230000000000001600140d8c371e13b8c463a2d69d5b4746ab1bc59edff6 01 40 000102030405060708090a0b0c0d0e0f000102030405060708090a0b0c0d0e0f000102030405060708090a0b0c0d0e0f000102030405060708090a0b0c0d0e0f 00000000`,
    legacy_2in_1out_INPUT: `0200000002dabc966fe2345d670aa178b6682fa14942bed4b74f324f5732d4676e24fc596d010000006b483045022100dff58625b067130cbd7e3c408d00a264a9831d42008154d79d6cc2fa711877bc02207a7ca43301ddb821f06afdf33db8eec68894b7e71d69edf9ed526eaaf2b7740001210276a597e63944345c438cddc4a210938311ab5c23bfcfa0145f2f49d5d7dbf5cdffffffff6547acf03bc491667525d775651e3940843463055302f89477b6032dde5ca26f000000006a473044022069f2b7c6928e36b0cc3ec2cceb45ed3358cc9b1fd81264ce298cb046a95f257202204d8403a67aefa15e51679783dd9220b55a13053b091973b054ea417a0dd6c5b901210331b71d3a6819a00f70aa33d26f2553cc648f1733cc4fdf3371cfeed01abafd3cffffffff 01 0dac62000000000017a9140ac20f7ebd0367b2a2b0b1ef2275ec22bb2c406987 00000000`,
    mix_7in_2out_INPUT:'020000000001077b8d0c62c0befcac3f856ca67c29fa808e03936873ed265bae97000da62afdfc0100000017160014cd80e6f59b912a121ff298b7b240a3982b2bebabffffffff1900b8d32778ada458b6db9cd8c07bf2087654836e4b9e474156507cb92e3ae4070000001716001443a077b69ef476e683ac544cc21a7903edb35ef9ffffffff7393f2c419dd82a84292025faa942fb37ff50c7a358e7975bf463e28df5d6980590000001716001443a077b69ef476e683ac544cc21a7903edb35ef9ffffffffba14bc6d2fc9f9bc697c5c36248bb5e65bad2494cafcffdb3ff238e2895a4b250000000017160014cd80e6f59b912a121ff298b7b240a3982b2bebabffffffffe76fbbbeb721ad02f7424644103dc62d58974cfc940e00f0702e85e5cdb0520a0d0000006a47304402205f114ed574b193d1c1f8c91e1cffa17a6475d9aca371c06c5f0167fc2a2f50df02207d5dda3cac0d9c4cd1b95759214235a5d4e5c71e4f477bc21f82661d45dbf44301210229fbdc8704e941d07b40aa4dd667e0d293a50b7b07d0a095468fb6a56c75581affffffff6e364b31ed8c15f4bbdd8ddb440e3be5220b7ad164529bb9d2018e7f1d73bcb23a00000017160014660f59d15604df2847045b0236b29f840f607f62ffffffff1cc743d136f7e5f4673dd642d288060e97700d309e085ab12ebbdef8826b5994020000006a47304402202ff6382466eb7d38e5bd032f2e06a6483b9c454783f891e76c010ab4fb5ca70e0220081b0be713169da731f6eff8f6eafa2070cde77c96adc2d44e3e0b3bf77525b3012103786af4b32017ec640dba2d2a7e1fd5aa4a231a658e4cbc114d51c031576e19bcffffffff02c0286f120400000017a914b91e28f4f8f6fced313112c0c72407d85ecec39a8787cb94070b0000001976a914cebb2851a9c7cfe2582c12ecaf7f3ff4383d1dc088ac0247304402205043288bc50c6ec91bde440b4f6cdafe82e9bfb6a2e74f7dafe9c3b148340cfc02200a44cbd22baedf01d3835b93756d20538e798c6c4f5e085d68d38dbb9a6240120121024e08a3453cfb64d14e13def3a9e70ba00e5fb92baabcc5d8e98edc40437ec443024730440220271fea17713d6f4bca7c2ac42190353bd8b97a394f3d3722536c0fda1d6fb8c9022028c4306d5fe2b252bc056326856dc9a8803beeb7683cbc5e122b49976daf58b301210258d75b74baa5036320f0d9870d7d0111caf46d33a3f4cfb7d4d4df889aeef6be0247304402203175c13a78eaa02ca2f6d0f4a7095366c8d07e8557981e1a9bb49defeef3c1c3022078d16c5ff4743c08d215ab366d6c0e0f3050353d9329ac6fd770120c7f33207301210258d75b74baa5036320f0d9870d7d0111caf46d33a3f4cfb7d4d4df889aeef6be02473044022007a0f3a428e9db7621f1a79e79697d8d0f86338c2aba3fca1cbfa34b6f555150022023f146e0965e390c71fbcd4409be228ebf3b504ebf33444bfd103cccf89a0a050121024e08a3453cfb64d14e13def3a9e70ba00e5fb92baabcc5d8e98edc40437ec4430002473044022040d2b9858d8f3462665cc9cf92a672fc07a3180b0178fbd0213b9ad990e5fe9102206d710ce60d357257b7dff7ac8f0e8367c3b171de76d6cedb3bb8d09f4f13abf201210219ff1df010b5eccc46d94a6f06bc508f0e07d30cdcf42cab44483ccc6bcfd6100000000000',
    segwitv0_1in_2out_RESULT: {
        version_LE: '02000000',
        segwitMarker_BE: '00',
        segwitFlag_BE: '01',
        noOfInputs_BE: '01',
        inputs: [
          {
            transactionHash_LE: '5036a4e1e299b37e0555d1490aa8cb6de379709349088159a5280e13892c74e9',
            utxoIndex_LE: '00000000',
            utxoScriptSigSizePrefix_BE: '00',
            utxoSequence_LE: 'feffffff'
          }
        ],
        noOfOutputs_BE: '02',
        outputs: [
          {
            outputSatoshis_LE: '8096980000000000',
            outputScriptPubkeySizePrefix_BE: '22',
            outputScriptPubkey_BE: '5120f128a8a8a636e19f00a80169550fedfc26b6f5dd04d935ec452894aad938ef0c'
          },
          {
            outputSatoshis_LE: 'e75a6d2901000000',
            outputScriptPubkeySizePrefix_BE: '16',
            outputScriptPubkey_BE: '0014cfb604b3feadf3367e96c701abd4912d0c99877f'
          }
        ],
        witnessesOfInputs: [
          {
            noOfWitnesses_BE: '02',
            witnesses: [
              {
                witnessSizePrefix_BE: '47',
                witness_BE: '304402206c4c1c9e2fa82d087e5c1a6256f2bcd7cab3b915bf2f6b782a80045f9dc7a9b2022034c720cbbab2e75cbd8a35bc99d148f408b16205592e80200bf2f491bb0fa88b01'
              },
              {
                witnessSizePrefix_BE: '21',
                witness_BE: '02077c102914911f57b8c1881e207ea09297024803e1c10ce3f20453c2c3f735c6'
              }
            ]
          }
        ],
        locktime_LE: '0d000000'
    },
    segwitv0_1in_1out_RESULT: {
      version_LE: '02000000',
      segwitMarker_BE: '00',
      segwitFlag_BE: '01',
      noOfInputs_BE: '01',
      inputs: [
        {
          transactionHash_LE: '62ba7ef7f4ed7e7e1f2fbca227459e1246b565f6c262fdc3f720415d7d1a46d4',
          utxoIndex_LE: '00000000',
          utxoScriptSigSizePrefix_BE: '00',
          utxoSequence_LE: 'ffffffff'
        }
      ],
      noOfOutputs_BE: '01',
      outputs: [
        {
          outputSatoshis_LE: '2823000000000000',
          outputScriptPubkeySizePrefix_BE: '16',
          outputScriptPubkey_BE: '00140d8c371e13b8c463a2d69d5b4746ab1bc59edff6'
        }
      ],
      witnessesOfInputs: [
        {
          noOfWitnesses_BE: '01',
          witnesses: [
            {
              witnessSizePrefix_BE: '40',
              witness_BE: '000102030405060708090a0b0c0d0e0f000102030405060708090a0b0c0d0e0f000102030405060708090a0b0c0d0e0f000102030405060708090a0b0c0d0e0f'
            }
          ]
        }
      ],
      locktime_LE: '00000000'
    },
    legacy_2in_1out_RESULT: {
      version_LE: '02000000',
      noOfInputs_BE: '02',
      inputs: [
        {
          transactionHash_LE: 'dabc966fe2345d670aa178b6682fa14942bed4b74f324f5732d4676e24fc596d',
          utxoIndex_LE: '01000000',
          utxoScriptSigSizePrefix_BE: '6b',
          utxoScriptSig_BE: '483045022100dff58625b067130cbd7e3c408d00a264a9831d42008154d79d6cc2fa711877bc02207a7ca43301ddb821f06afdf33db8eec68894b7e71d69edf9ed526eaaf2b7740001210276a597e63944345c438cddc4a210938311ab5c23bfcfa0145f2f49d5d7dbf5cd',
          utxoSequence_LE: 'ffffffff'
        },
        {
          transactionHash_LE: '6547acf03bc491667525d775651e3940843463055302f89477b6032dde5ca26f',
          utxoIndex_LE: '00000000',
          utxoScriptSigSizePrefix_BE: '6a',
          utxoScriptSig_BE: '473044022069f2b7c6928e36b0cc3ec2cceb45ed3358cc9b1fd81264ce298cb046a95f257202204d8403a67aefa15e51679783dd9220b55a13053b091973b054ea417a0dd6c5b901210331b71d3a6819a00f70aa33d26f2553cc648f1733cc4fdf3371cfeed01abafd3c',
          utxoSequence_LE: 'ffffffff'
        }
      ],
      noOfOutputs_BE: '01',
      outputs: [
        {
          outputSatoshis_LE: '0dac620000000000',
          outputScriptPubkeySizePrefix_BE: '17',
          outputScriptPubkey_BE: 'a9140ac20f7ebd0367b2a2b0b1ef2275ec22bb2c406987'
        }
      ],
      locktime_LE: '00000000'
    },
    mix_7in_2out_RESULT: {  
      version_LE: '02000000',
      segwitMarker_BE: '00', 
      segwitFlag_BE: '01',
      noOfInputs_BE: '07',
      inputs: [
        {
          transactionHash_LE: '7b8d0c62c0befcac3f856ca67c29fa808e03936873ed265bae97000da62afdfc',
          utxoIndex_LE: '01000000',
          utxoScriptSigSizePrefix_BE: '17',
          utxoScriptSig_BE: '160014cd80e6f59b912a121ff298b7b240a3982b2bebab',
          utxoSequence_LE: 'ffffffff'
        },
        {
          transactionHash_LE: '1900b8d32778ada458b6db9cd8c07bf2087654836e4b9e474156507cb92e3ae4',
          utxoIndex_LE: '07000000',
          utxoScriptSigSizePrefix_BE: '17',
          utxoScriptSig_BE: '16001443a077b69ef476e683ac544cc21a7903edb35ef9',
          utxoSequence_LE: 'ffffffff'
        },
        {
          transactionHash_LE: '7393f2c419dd82a84292025faa942fb37ff50c7a358e7975bf463e28df5d6980',
          utxoIndex_LE: '59000000',
          utxoScriptSigSizePrefix_BE: '17',
          utxoScriptSig_BE: '16001443a077b69ef476e683ac544cc21a7903edb35ef9',
          utxoSequence_LE: 'ffffffff'
        },
        {
          transactionHash_LE: 'ba14bc6d2fc9f9bc697c5c36248bb5e65bad2494cafcffdb3ff238e2895a4b25',
          utxoIndex_LE: '00000000',
          utxoScriptSigSizePrefix_BE: '17',
          utxoScriptSig_BE: '160014cd80e6f59b912a121ff298b7b240a3982b2bebab',
          utxoSequence_LE: 'ffffffff'
        },
        {
          transactionHash_LE: 'e76fbbbeb721ad02f7424644103dc62d58974cfc940e00f0702e85e5cdb0520a',
          utxoIndex_LE: '0d000000',
          utxoScriptSigSizePrefix_BE: '6a',
          utxoScriptSig_BE: '47304402205f114ed574b193d1c1f8c91e1cffa17a6475d9aca371c06c5f0167fc2a2f50df02207d5dda3cac0d9c4cd1b95759214235a5d4e5c71e4f477bc21f82661d45dbf44301210229fbdc8704e941d07b40aa4dd667e0d293a50b7b07d0a095468fb6a56c75581a',
          utxoSequence_LE: 'ffffffff'
        },
        {
          transactionHash_LE: '6e364b31ed8c15f4bbdd8ddb440e3be5220b7ad164529bb9d2018e7f1d73bcb2',
          utxoIndex_LE: '3a000000',
          utxoScriptSigSizePrefix_BE: '17',
          utxoScriptSig_BE: '160014660f59d15604df2847045b0236b29f840f607f62',
          utxoSequence_LE: 'ffffffff'
        },
        {
          transactionHash_LE: '1cc743d136f7e5f4673dd642d288060e97700d309e085ab12ebbdef8826b5994',
          utxoIndex_LE: '02000000',
          utxoScriptSigSizePrefix_BE: '6a',
          utxoScriptSig_BE: '47304402202ff6382466eb7d38e5bd032f2e06a6483b9c454783f891e76c010ab4fb5ca70e0220081b0be713169da731f6eff8f6eafa2070cde77c96adc2d44e3e0b3bf77525b3012103786af4b32017ec640dba2d2a7e1fd5aa4a231a658e4cbc114d51c031576e19bc',
          utxoSequence_LE: 'ffffffff'
        }
      ],
      noOfOutputs_BE: '02',
      outputs: [
        {
          outputSatoshis_LE: 'c0286f1204000000',
          outputScriptPubkeySizePrefix_BE: '17',
          outputScriptPubkey_BE: 'a914b91e28f4f8f6fced313112c0c72407d85ecec39a87'
        },
        {
          outputSatoshis_LE: '87cb94070b000000',
          outputScriptPubkeySizePrefix_BE: '19',
          outputScriptPubkey_BE: '76a914cebb2851a9c7cfe2582c12ecaf7f3ff4383d1dc088ac'
        }
      ],
      witnessesOfInputs: [
        {
          noOfWitnesses_BE: '02',
          witnesses: [
            {
              witnessSizePrefix_BE: '47',
              witness_BE: '304402205043288bc50c6ec91bde440b4f6cdafe82e9bfb6a2e74f7dafe9c3b148340cfc02200a44cbd22baedf01d3835b93756d20538e798c6c4f5e085d68d38dbb9a62401201'
            },
            {
              witnessSizePrefix_BE: '21',
              witness_BE: '024e08a3453cfb64d14e13def3a9e70ba00e5fb92baabcc5d8e98edc40437ec443'
            }
          ]
        },
        {
          noOfWitnesses_BE: '02',
          witnesses: [
            {
              witnessSizePrefix_BE: '47',
              witness_BE: '30440220271fea17713d6f4bca7c2ac42190353bd8b97a394f3d3722536c0fda1d6fb8c9022028c4306d5fe2b252bc056326856dc9a8803beeb7683cbc5e122b49976daf58b301'
            },
            {
              witnessSizePrefix_BE: '21',
              witness_BE: '0258d75b74baa5036320f0d9870d7d0111caf46d33a3f4cfb7d4d4df889aeef6be'
            }
          ]
        },
        {
          noOfWitnesses_BE: '02',
          witnesses: [
            {
              witnessSizePrefix_BE: '47',
              witness_BE: '304402203175c13a78eaa02ca2f6d0f4a7095366c8d07e8557981e1a9bb49defeef3c1c3022078d16c5ff4743c08d215ab366d6c0e0f3050353d9329ac6fd770120c7f33207301'
            },
            {
              witnessSizePrefix_BE: '21',
              witness_BE: '0258d75b74baa5036320f0d9870d7d0111caf46d33a3f4cfb7d4d4df889aeef6be'
            }
          ]
        },
        {
          noOfWitnesses_BE: '02',
          witnesses: [
            {
              witnessSizePrefix_BE: '47',
              witness_BE: '3044022007a0f3a428e9db7621f1a79e79697d8d0f86338c2aba3fca1cbfa34b6f555150022023f146e0965e390c71fbcd4409be228ebf3b504ebf33444bfd103cccf89a0a0501'
            },
            {
              witnessSizePrefix_BE: '21',
              witness_BE: '024e08a3453cfb64d14e13def3a9e70ba00e5fb92baabcc5d8e98edc40437ec443'
            }
          ]
        },
        { 
          noOfWitnesses_BE: '00', 
          witnesses: [] 
        },
        {
          noOfWitnesses_BE: '02',
          witnesses: [
            {
              witnessSizePrefix_BE: '47',
              witness_BE: '3044022040d2b9858d8f3462665cc9cf92a672fc07a3180b0178fbd0213b9ad990e5fe9102206d710ce60d357257b7dff7ac8f0e8367c3b171de76d6cedb3bb8d09f4f13abf201'
            },
            {
              witnessSizePrefix_BE: '21',
              witness_BE: '0219ff1df010b5eccc46d94a6f06bc508f0e07d30cdcf42cab44483ccc6bcfd610'
            }
          ]
        },
        { 
          noOfWitnesses_BE: '00', 
          witnesses: [] 
        },
      ],
      locktime_LE: '00000000'
    },
}

